000000170492021011210101                                                                                                                                                                                                                                                                                                                                                                                                                                                                                                                                                                                                                                                                                                                                                                                                                                                                                                                                                                                                                                                                                                                                                                                                                                                                                                                                                                                                                                                                                                                                                                                                                                                                                                                                                                                                                                
12021011220210201     0010000001042088931    4208893             PRIETO RODOLFO                                                                                      M    C    4    DR MARIANO MORENO                                           4225            -                                                                                              1678    CASEROS                       B    0001147347510                                                                                  DR MARIANO MORENO                                           4225  -                                                                          CASEROS                       B1678AMETRES DE FEBRERO               B    000                                                         1    0    00000000                                                       0019001293319582                                               00000STAND               00000               0010000000020120323000000000000000000015P    D    0000020200722202007220020000000000000202101042021010400000693717000000000017350000000000                                                                                                                                                                                                                                                                                                                                                                                                                                                                                                                                                                                                                                                    00080000000000000000000000000000000060316700173761200000000000000000 ASIA 00000000
12021011220210201     0010000001043080881    4308088             DELUCA RAFAEL JOSE                                                                                  M    C    4    MAESTRA ROCHA MONTARCE                                      937                                                                                                            1685    EL PALOMAR                    B    01144432489                                                                                                                                                                                                                                                                                                          000                                                         1    1    00049300                                                       0019001290914773                                               00000STAND               00000               0010002311620070114000000000000000000015P    D    0000020201214202012120018420000000000202101042021010400000071708000000000007170000000000                                                                                                                                                                                                                                                                                                                                                                                                                                                                                                                                                                                                                                                    00080000000000000000000000000000000060316700154618820000000000000000 ASIA 00099800
12021011220210201     0010000001043080881    4308088             DELUCA RAFAEL JOSE                                                                                  M    C    4    SARGENTO CABRAL                                             00343 0                                                                                                        1684    EL PALOMAR                    B    01144432489                                                                                                                                                                                                                                                                                                          000                                                         1    1    00049300                                                       0019001290914773                                               00000STAND               00000               0010002311620070114000000000000000000015P    D    0000020201214202012120018420000000000202101042021010400000071708000000000007170000000000                                                                                                                                                                                                                                                                                                                                                                                                                                                                                                                                                                                                                                                    00080000000000000000000000000000000060316700154618820000000000000000 ASIA 00099800
12021011220210201     0010000001044494761    4449476             COLIQUEO MIGUEL ANGEL                                                                               M    C    4    JOAQUIN V GONZALEZ                                          1973            -                                                                                              1665    JOSE CLEMENTE P               B    011423648                                                                                      JOAQUIN V GONZALEZ                                          1973  -                                                                          JOSE CLEMENTE PAZ             B1665FHIJOSE CLEMENTE PAZ             B    02320423648                                                 1    14   00000000                                                       0019001311952906                                               00000STAND               00000               0010003720120080817000000000000000000015P    D    0000020181101201811010018850000000000202101042021010400000305040000000000007650000000000                                                                                                                                                                                                                                                                                                                                                                                                                                                                                                                                                                                                                                                    00080000000000000000000000000000000060316700214367610000000000000000 ASIA 00000000
12021011220210201     0010000001044812411    4481241             MELLINO ERNESTO MIGUEL                                                                              M    C    4    MERCEDES                                                    4516  2         c                                                                                              1419    CIUDAD AUTONOMA               C    01145036288                                                                                    MERCEDES                                                    4516  2         c                                                                CIUDAD AUTONOMA BUENOS AIRES  C1419BHBCAPITAL FEDERAL               C    000                                                         1    0    00000000                                                       0019000901732180                                               00000STAND               00000               0010000000020080305000000000000000000015P    D    0000020201027202010260072985900000000202101042021010400000245962000000000006180000000000                                                                                                                                                                                                                                          01146352668                                                                                                                                                                                                                                                                                                                                                                                               00080000000000000000000000000000000060316700543518200000000000000000 ASIA 00000000
12021011220210201     0010000001082496501    8249650             CATHCARTH MELCIADES ALBERTO                                                                         M    C    4    WILLIAM MORRIS                                              1030  xx        xx                                                                                             B1604AWDFLORIDA OESTE                 B    01166985941                                                                                    WILLIAM MORRIS                                              1030  xx        xx                                                               FLORIDA OESTE                 B1604AWDVICENTE LOPEZ                 B    000                                                         1    0    00000000                                                       0019001175448078                                               00000STAND               00000               0010000000020171009000000000000000000015P    D    0000020201211202012100017052500000000202101042021010400000170999000000000017090000000000                                                                                                                                                                                                                                                                                                                                                                                                                                                                                                                                                                                                                                                    00080000000000000000000000000000000060316700460577250000000000000000 ASIA 00000000
12021011220210201     0010000001082646411    8264641             CESANO JUAN CARLOS                                                                                  M    C    4    GUTIERREZ                                                   1581            -                                                                                              B1650KXEGRAL SAN MARTIN               B    01147521945                                                                                    GUTIERREZ                                                   1581  -                                                                          GENERAL SAN MARTIN            B1650KXEGENERAL SAN MARTIN            B    000                                                         1    0    00000000                                                       0019001113756849                                               00000STAND               00000               0010000000020130618000000000000000000015P    D    0000020201210202012100120000000000000202101042021010400001132900000000000104120000000000                                                                                                                                                                                                                                                                                                                                                                                                                                                                                                                                                                                                                                                    00080000000000000000000000000000000060316700429249690000000000000000 ASIA 00000000
12021011220210201     0010000001084693461    8469346             MOLINA RIVERA GERONIMO DEL ROS                                                                      M    C    4    DIQUE LOS MOLINOS                                           1565  0         0                                                                                              5501    godoy cruz                    M    02614447586                                                                                    dique los molinos                                           1565  0         0                                                                godoy cruz                    5501    godoy cruz                    M    000                                                         1    0    00000000                                                       0019002095582196                                               00000STAND               00000               0010000000020180322000000000000000000015P    D    0000020200714202007140027300000000000202101042021010400000497824000000000021620000000000                                                                                                                                                                                                                                                                                                                                                                                                                                                                                                                                                                                                                                                    00080000805000000000000000000000000060316700137153880000000000000000 ASIA 00000000
12021011220210201     0010000001160577341    16057734            VERON CARLOS ADOLFO                                                                                 M    C    4    ARGENTINA                                                   4937  0         0                                                                                              1664    MANUEL ALBERTI                B    0348800467933                                                                                  ARGENTINA                                                   4937  0         0                                                                MANUEL ALBERTI                B1664LIAPILAR                         B    034884679333                                                1    20   00000000                                                       0019001843144235                                               00000STAND               00000               0010000000020110905000000000000000000015P    D    0000020201028202010240002500000000000202101042021010400000148844000000000004450000000000                                                                                                                                                                                                                                                                                                                                                                                                                                                                                                                                                                                                                                                    00080000000000000000000000000000000060316700171874440000000000000000 ASIA 00000000
12021011220210201     0010000001160577341    16057734            VERON CARLOS ADOLFO                                                                                 M    C    4    REPUBLICA ARGENTINA                                         04937           0                                                                                              1620    MAQ. SAVIO                    B    0348800467933                                                                                  ARGENTINA                                                   4937  0         0                                                                MANUEL ALBERTI                B1664LIAPILAR                         B    034884679333                                                1    20   00000000                                                       0019001843144235                                               00000STAND               00000               0010000000020110905000000000000000000015P    D    0000020201028202010240002500000000000202101042021010400000148844000000000004450000000000                                                                                                                                                                                                                                                                                                                                                                                                                                                                                                                                                                                                                                                    00080000000000000000000000000000000060316700171874440000000000000000 ASIA 00000000
12021011220210201     0010000001160577341    16057734            VERON CARLOS ADOLFO                                                                                 M    C    4    REPUBLICA ARGENTINA                                         04937 0.        0                                                                                              1629    PILAR                         B    0348800467933                                                                                  ARGENTINA                                                   4937  0         0                                                                MANUEL ALBERTI                B1664LIAPILAR                         B    034884679333                                                1    20   00000000                                                       0019001843144235                                               00000STAND               00000               0010000000020110905000000000000000000015P    D    0000020201028202010240002500000000000202101042021010400000148844000000000004450000000000                                                                                                                                                                                                                                                                                                                                                                                                                                                                                                                                                                                                                                                    00080000000000000000000000000000000060316700171874440000000000000000 ASIA 00000000
12021011220210201     0010000001160577341    16057734            VERON CARLOS ADOLFO                                                                                 M    C    4    REPUBLICA ARGENTINA                                         04937 00        0                                                                                              1620    MAQUINISTA F. S               B    0348800467933                                                                                  ARGENTINA                                                   4937  0         0                                                                MANUEL ALBERTI                B1664LIAPILAR                         B    034884679333                                                1    20   00000000                                                       0019001843144235                                               00000STAND               00000               0010000000020110905000000000000000000015P    D    0000020201028202010240002500000000000202101042021010400000148844000000000004450000000000                                                                                                                                                                                                                                                                                                                                                                                                                                                                                                                                                                                                                                                    00080000000000000000000000000000000060316700171874440000000000000000 ASIA 00000000
12021011220210201     0010000001923000031    92300003            MARTELL CAVALHEIRO CARLOS GUST                                                                      M    C    4    CANGALLO                                                    2020            -                                                                                              B1834CNPTEMPERLEY                     B    01142643576                                                                                    CANGALLO                                                    2020  -                                                                          TEMPERLEY                     B1834CNPLOMAS DE ZAMORA               B    01142643576                                                 1    20   00000000                                                       0019001074043266                                               00000REACT               29634               0010000000020140505000000000000000000015P    D    0000020200802202008030073802700000000202101042021010400000137922000000000004150000000000                                                                                                                                                                                                                                                                                                                                                                                                                                                                                                                                                                                                                                                    00080000488100000000000000000000000060316700199431740000000000000000 ASIA 00000000
12021011220210201     0010000001940380051    94038005            KHOO KOK KEONG                                                                                      M    C    4    MITRE                                                       1945            -                                                                                              1804    ezeiza                        B    0001142977808                                                                                  mitre                                                       1945  -                                                                          ezeiza                        1804    ezeiza                        B    001142957807                                                1    20   00000000                                                       0019001893497044                                               00000STAND               00000               0010000000020121017000000000000000000015P    D    0000020201221202012210050000000000000202101042021010400000910225000000000091020000000000                                                                                                                                                                                                                                                                                                                                                                                                                                                                                                                                                                                                                                                    00080000000000000000000000000000000060316700141924390000000000000000 ASIA 00419901
12021011220210201     0010000002011087362    1108736             LOPEZ DORA                                                                                          F    C    4    JOSE MARIA CORTINA                                          28    pb        3                                                                                              1407    CIUDAD AUTONOMA               C    01146834172                                                                                    JOSE MARIA CORTINA                                          28    pb        3                                                                CIUDAD AUTONOMA BUENOS AIRES  C1407BXBCAPITAL FEDERAL               C    000                                                         1    0    00000000                                                       0019000851921870                                               00000STAND               00000               0010001777720080725000000000000000000015P    D    0000020201021202010210030000000000000202101042021010400000049455000000000004940000000000                                                                                                                                                                                                                                                                                                                                                                                                                                                                                                                                                                                                                                                    00080000000000000000000000000000000060316700184332350000000000000000 ASIA 00000000
12021011220210201     0010000002036305832    3630583             STUDER CLIDE HILDA                                                                                  F    V    4    FCO RUBILAR                                                 3250  0         0                                                                                              5500    mendoza                       M    02614301143                                                                                    fco rubilar                                                 3250  0         0                                                                mendoza                       5500    mendoza                       M    000                                                         1    0    00000000                                                       0019002095524592                                               00000STAND               00000               0010000000020171227000000000000000000015P    D    0000020190812201908120005600000000000202101042021010400000394667000000000009160000000000                                                                                                                                                                                                                                                                                                                                                                                                                                                                                                                                                                                                                                                    00080000257400000000000000000000000060316700171372250000000000000000 ASIA 00000000
12021011220210201     0010000002037492922    3749292             ARIAS NORMA                                                                                         F    C    4    IGNACIO NU EZ                                               3980                                                                                                           1430    CIUDAD AUTONOMA               C    01145426276                                                                                                                                                                                                                                                                                                          000                                                         1    1    00056000                                                       0019001811431185                                               00000STAND               00000               0010001832520070706000000000000000000015P    D    0000020201201202012010012500000000000202101042021010400000059373000000000005930000000000                                                                                                                                                                                                                                          01147613763                                                                                                                                                                                                                                                                                                                                                                                               00080000000000000000000000000000000060316700853798080000000000000000 ASIA 00087484
12021011220210201     0010000002037721992    3772199             FOSTER CORA LIUA                                                                                    F    C    4    DR M DE ANCHORENA                                           01267 01        d                                                                                              1425    CAPITAL FEDERAL               C    01149660122                                                                                    DR TOMAS DE ANCHORENA                                       1267  1         d                                                                CIUDAD AUTONOMA BUENOS AIRES  C1425ELCCAPITAL FEDERAL               C    000                                                         1    0    00000000                                                       0019000475517624                                               00000STAND               00000               0010000000020171220000000000000000000015P    D    0000020201125202011250041705400000000202101042021010400000210062000000000021000000000000                                                                                                                                                                                                                                                                                                                                                                                                                                                                                                                                                                                                                                                    00080000000000000000000000000000000060316700232966270000000000000000 ASIA 00441534
12021011220210201     0010000002037721992    3772199             FOSTER CORA LIUA                                                                                    F    C    4    DR TOMAS DE ANCHORENA                                       1267  1         d                                                                                              1099    CAPITAL FEDERAL               C    01149660122                                                                                    DR TOMAS DE ANCHORENA                                       1267  1         d                                                                CIUDAD AUTONOMA BUENOS AIRES  C1425ELCCAPITAL FEDERAL               C    000                                                         1    0    00000000                                                       0019000475517624                                               00000STAND               00000               0010000000020171220000000000000000000015P    D    0000020201125202011250041705400000000202101042021010400000210062000000000021000000000000                                                                                                                                                                                                                                                                                                                                                                                                                                                                                                                                                                                                                                                    00080000000000000000000000000000000060316700232966270000000000000000 ASIA 00441534
12021011220210201     0010000002040973092    4097309             PECARELLI MILTA EDA                                                                                 F    V    4    DR A ALSINA                                                 00956 0                                                                                                        2000    ROSARIO                       S    03414388291                                                      jubilada                      ALSINA DOCTOR ADOLFO                                        956                                                                              ROSARIO                       S2002REDROSARIO                       S    03414388291                                                 1    1    00090000                                                       0019001651458881                                               00000STAND               00000               0010003056120070729000000000000000000015P    D    0000020201209202012070084130000000000202101042021010400000996320000000000023660000000000                                                                                                                                                                                                                                                                                                                                                                                                                                                                                                                                                                                                                                                    00080000007100000000000000000000000060316700377639010000000000000000 ASIA 00049560
12021011220210201     0010000002040973092    4097309             PECARELLI MILTA EDA                                                                                 F    V    4    DR A ALSINA                                                 956                                                                                                            2002    ROSARIO                       S    03414388291                                                      jubilada                      ALSINA DOCTOR ADOLFO                                        956                                                                              ROSARIO                       S2002REDROSARIO                       S    03414388291                                                 1    1    00090000                                                       0019001651458881                                               00000STAND               00000               0010003056120070729000000000000000000015P    D    0000020201209202012070084130000000000202101042021010400000996320000000000023660000000000                                                                                                                                                                                                                                                                                                                                                                                                                                                                                                                                                                                                                                                    00080000007100000000000000000000000060316700377639010000000000000000 ASIA 00049560
12021011220210201     0010000002045815592    4581559             LUNA RAMONA                                                                                         F    V    4    FELIPE LLAVALLOL                                            275                                                                                                            1615    GRAND BOURG                   B    02320437253                                                                                                                                                                                                                                                                                                          000                                                         1    1    00046000                                                       0019001310314853                                               00000STAND               00000               0010005177520060825000000000000000000015P    D    0000020201124202011200025000000000000202101042021010400001399460000000000035900000000000                                                                                                                                                                                                                                                                                                                                                                                                                                                                                                                                                                                                                                                    00080061251000000000000000000000000060316700890394080000000000000000 ASIA 00063316
12021011220210201     0010000002058022842    5802284             PEDERSON MIRTA GUADALUPE                                                                            F    V    4    REP DE SIRIA                                                5829  00        01                                                                                             3004    SANTA FE                      S    0034204693290                                                                                  REP DE SIRIA                                                5829  00        01                                                               SANTA FE                      S3004GKILA CAPITAL                    S    000                                                         1    0    00000000                                                       0019001182848430                                               00000STAND               00000               0010000000020101201000000000000000000015P    D    0000020200831202008310000207000000000202101042021010400000329532000000000007880000000000                                                                                                                                                                                                                                                                                                                                                                                                                                                                                                                                                                                                                                                    00080000000000000000000000000000000060316700297466330000000000000000 ASIA 00000000
12021011220210201     0010000002059735962    5973596             PERALTA MARTA HAYDEE                                                                                F    C    4    GRANADEROS A CABALLOS                                       4255                                                                                                           1665    JOSE C PAZ                    B    0232000432068                 0111536735982                                                    GRANADEROS A CABALLOS                                       4255  -                                                                          JOSE C PAZ                    1665    JOSE C PAZ                    B    000                                                         1    0    00000000                                                       0019001313689877                                               00000STAND               00000               0010002840720130412000000000000000000015P    D    0000020201117202011170036000000000000202101042021010400000389356000000000009450000000000                                                                                                                                                                                                                                                                                                                                                                                                                                                                                                                                                                                                                                                    00080000000000000000000000000000000060316700161238790000000000000000 ASIA 00000000
12021011220210201     0010000002064398432    6439843             CARULLA SUSANA BEATRIZ                                                                              F    S    4    JUAN SAN MARTIN                                             01642 06        A                                                                                              3100    PARANA                        E    03434217621                                                      COLEGIO DE BIOQUIMICOS DE ENTRESPAÐA                                                      234                                                                              PARANA                        E3100HHFPARANA                        E    03434230203                                                 1    17   00160000                                                       0019001091390484                                               00000STAND               00000               0010001131720070608000000000000000000015P    D    0000020201217202012170060000000000000202101042021010400001931290000000000001210000000000                                                                                                                                                                                                                                                                                                                                                                                                                                                                                                                                                                                                                                                    00080149521000000000000000000000000060316700158400360000000000000000 ASIA 00000000
12021011220210201     0010000002075729032    7572903             PEREYRA RUBI OLGA                                                                                   F    S    4    AV DEL LIBERTADOR                                           2741  5         B                                                                                              B1636DSHOLIVOS                        B    0001147903173                                                                                  AV DEL LIBERTADOR                                           2741  5         B                                                                OLIVOS                        B1636DSHVICENTE LOPEZ                 B    000                                                         2    0    00000000                                                       0019000713368021                                               00000STAND               00000               0010000831720120517000000000000000000015P    D    0000020200810202008100002000000000000202101042021010400000431171000000000011000000000000                                                                                                                                                                                                                                                                                                                                                                                                                                                                                                                                                                                                                                                    00080000000000000000000000000000000060316700137420850000000000000000 ASIA 00000000
12021011220210201     0010000002099893662    9989366             ATTWELL GRACIELA BEATRIZ                                                                            F    D    4    PEDRO JOSE AGRELO                                           4126  1         A                                                                                              C1224ABVCAPITAL FEDERAL               C    01139649911                                                                                    PEDRO JOSE AGRELO                                           4126  1         A                                                                CIUDAD AUTONOMA BUENOS AIRES  C1224ABVCAPITAL FEDERAL               C    000                                                         4    0    00000000                                                       0019000433948550                                               00000STAND               00000               0010000000020140107000000000000000000015P    D    0000020201020202010200000460000000000202101042021010400000075134000000000002770000000000                                                                                                                                                                                                                                                                                                                                                                                                                                                                                                                                                                                                                                                    00080000000800000000000000000000000060316700155607900000000000000000 ASIA 00000000
12021011220210201     0010000002105588002    10558800            COLLADO OLGA ADRIANA                                                                                F    C    4    VIRREY A OLAGUER Y FELIU                                    4448  0         0                                                                                              1605    MUNRO                         B    0001147614471                                                    anses                                                                                                                                                                                                                                               01147565637                                                 1    20   00000000                                                       0019001883049433                                               00000STAND               00000               0010000000020110622000000000000000000015P    D    0000020201201202012010010000000000000202101042021010400000276857000000000009340000000000                                                                                                                                                                                                                                                                                                                                                                                                                                                                                                                                                                                                                                                    00080000000000000000000000000000000060316700564297310000000000000000 ASIA 00000000
12021011220210201     0010000002109607322    10960732            AGUANNO JUANA ANGELICA                                                                              F    C    4    JUAN GREGORIO DIAZ                                          00088 0         -                                                                                              1804    EZEIZA                        B    0001142953633                                                                                  JUAN GREGORIO DIAZ                                          62    -                                                                          EZEIZA                        B1804HYBEZEIZA                        B    000                                                         1    0    00000000                                                       0019001893194525                                               00000STAND               00000               0010001042720111027000000000000000000015P    D    0000020201117202011170024000000000000202101042021010400000411764000000000037410000000000                                                                                                                                                                                                                                                                                                                                                                                                                                                                                                                                                                                                                                                    00080004696400000000000000000000000060316700143713140000000000000000 ASIA 01046129
12021011220210201     0010000002109607322    10960732            AGUANNO JUANA ANGELICA                                                                              F    C    4    JUAN GREGORIO DIAZ                                          62              -                                                                                              1804    EZEIZA                        B    0001142953633                                                                                  JUAN GREGORIO DIAZ                                          62    -                                                                          EZEIZA                        B1804HYBEZEIZA                        B    000                                                         1    0    00000000                                                       0019001893194525                                               00000STAND               00000               0010001042720111027000000000000000000015P    D    0000020201117202011170024000000000000202101042021010400000411764000000000037410000000000                                                                                                                                                                                                                                                                                                                                                                                                                                                                                                                                                                                                                                                    00080004696400000000000000000000000060316700143713140000000000000000 ASIA 01046129
12021011220210201     0010000002174657822    17465782            SONIA TABAREZ                                                                                       F    C    4    LOPEZ MAY                                                   02050 PB        0                                                                                              1757    LAFERRERE                     B    0001148717356                                                    empleada domestica            la isla lote                                                205   0         0                                                                tigre                         1649    tigre                         B    01148717356                                                 1    20   00000000                                                       0019000612781365                                               00000STAND               00000               0010000000020100907000000000000000000015P    D    0000020200616202006130022940000000000202101042021010400000188881000000000007300000000000                                                                                                                                                                                                                                                                                                                                                                                                                                                                                                                                                                                                                                                    00080000000000000000000000000000000060316700571143320000000000000000 ASIA 00000000
12021011220210201     0010000002174657822    17465782            SONIA TABAREZ                                                                                       F    C    4    LOPEZ MAY                                                   2057  0         0                                                                                              1757    LAFERRERE                     B    0001148717356                                                    empleada domestica            la isla lote                                                205   0         0                                                                tigre                         1649    tigre                         B    01148717356                                                 1    20   00000000                                                       0019000612781365                                               00000STAND               00000               0010000000020100907000000000000000000015P    D    0000020200616202006130022940000000000202101042021010400000188881000000000007300000000000                                                                                                                                                                                                                                                                                                                                                                                                                                                                                                                                                                                                                                                    00080000000000000000000000000000000060316700571143320000000000000000 ASIA 00000000
12021011220210201     0010000002939221412    93922141            SANCHEZ RIVERA VALENTINA                                                                            F    C    4    CASTELLI                                                    00123 05        -                                                                                              1031    CAPITAL FEDERAL               C    0001146123760                                                    zurloliliana maria elena      BILLINGHURST                                                2180  -                                                                          CIUDAD AUTONOMA BUENOS AIRES  C1425DTRCAPITAL FEDERAL               C    01148239999                                                 1    14   00000000                                                       0019001802240659                                               00000STAND               00000               0010000000020090811000000000000000000015P    D    0000020200514202005140031280000000000202101042021010400000379668000000000008860000000000                                                                                                                                                                                                                                          01143734955                                                                                                                                                                                                                                                                                                                                                                                               00080000968600000000000000000000000060316700139937790000000000000000 ASIA 00000000
12021011220210201     0010000002939221412    93922141            SANCHEZ RIVERA VALENTINA                                                                            F    C    4    YERBAL                                                      2627            -                                                                                              1406    CIUDAD AUTONOMA               C    0001146123760                                                    zurloliliana maria elena      BILLINGHURST                                                2180  -                                                                          CIUDAD AUTONOMA BUENOS AIRES  C1425DTRCAPITAL FEDERAL               C    01148239999                                                 1    14   00000000                                                       0019001802240659                                               00000STAND               00000               0010000000020090811000000000000000000015P    D    0000020200514202005140031280000000000202101042021010400000379668000000000008860000000000                                                                                                                                                                                                                                          01143734955                                                                                                                                                                                                                                                                                                                                                                                               00080000968600000000000000000000000060316700139937790000000000000000 ASIA 00000000
12021011220210201     0010000003005047733    504773              LUCINI ELIDA                                                                                        F    V    4    AV. MONROE                                                  04050 12        B                                                                                              1430    CAPITAL FEDERAL               C    01145439890                                                                                    AV MONROE                                                   3883  2         B                                                                CIUDAD AUTONOMA BUENOS AIRES  C1430BLCCAPITAL FEDERAL               C    000                                                         1    0    00000000                                                       0019000921600043                                               00000STAND               00000               0010001952620071122000000000000000000015P    D    0000020201214202012120004230000000000202101042021010400000042774000000000004270000000000                                                                                                                                                                                                                                                                                                                                                                                                                                                                                                                                                                                                                                                    00080000000400000000000000000000000060316700197757740000000000000000 ASIA 00000000
12021011220210201     0010000003005047733    504773              LUCINI ELIDA                                                                                        F    V    4    HOLMBERG                                                    02350 04        B                                                                                              1430    CAPITAL FEDERAL               C    01145439890                                                                                    AV MONROE                                                   3883  2         B                                                                CIUDAD AUTONOMA BUENOS AIRES  C1430BLCCAPITAL FEDERAL               C    000                                                         1    0    00000000                                                       0019000921600043                                               00000STAND               00000               0010001952620071122000000000000000000015P    D    0000020201214202012120004230000000000202101042021010400000042774000000000004270000000000                                                                                                                                                                                                                                                                                                                                                                                                                                                                                                                                                                                                                                                    00080000000400000000000000000000000060316700197757740000000000000000 ASIA 00000000
12021011220210201     0010000003010578813    1057881             ROMERO MARIA MARINA                                                                                 F    V    4    JUAN JOSE CASTELLI                                          6740            -                                                                                              1606    CARAPACHAY                    B    01147633943                                                      jubilado                      JUAN JOSE CASTELLI                                          6740  -                                                                          CARAPACHAY                    B1606ACNVICENTE LOPEZ                 B    01147633943                                                 1    14   00000000                                                       0019001882145194                                               00000STAND               00000               0010000025020090324000000000000000000015P    D    0000020201214202012140143950000000000202101042021010400000043970000000000004390000000000                                                                                                                                                                                                                                          01147354145                                                                                                                                                                                                                                                                                                                                                                                               00080000000000000000000000000000000060316700136160810000000000000000 ASIA 00000000
12021011220210201     0010000003011335373    1133537             ZACCHI DELIA ISABEL                                                                                 F    V    4    JOSE BENJAMIN GOROSTIAGA                                    2314  9         -                                                                                              1426    CIUDAD AUTONOMA               C    01147728327                                                                                    JOSE BENJAMIN GOROSTIAGA                                    2314  9                                                                          CIUDAD AUTONOMA BUENOS AIRES  C1426CTRCAPITAL FEDERAL               C    000                                                         1    0    00000000                                                       0019000451847367                                               00000STAND               00000               0010004529120080525000000000000000000015P    D    0000020201215202012150008000000000000202101042021010400000139066000000000013900000000000                                                                                                                                                                                                                                          01144750195                                                                                                                                                                                                                                                                                                                                                                                               00080000000000000000000000000000000060316700197972570000000000000000 ASIA 00716512
12021011220210201     0010000003019377263    1937726             PASSARELLI VICTORIA CARMEN                                                                          F    C    4    PASCO                                                       1105  4         15                                                                                             C1219ABMCAPITAL FEDERAL               C    0001149416255                                                                                  PASCO                                                       1105  4         15                                                               CIUDAD AUTONOMA BUENOS AIRES  C1219ABMCAPITAL FEDERAL               C    000                                                         1    0    00000000                                                       0019000613386620                                               00000STAND               00000               0010000000020120606000000000000000000015P    D    0000020201124202011240040000000000000202101042021010400001616560000000000041630000000000                                                                                                                                                                                                                                                                                                                                                                                                                                                                                                                                                                                                                                                    00080150027400000000000000000000000060316700138121360000000000000000 ASIA 00000000
12021011220210201     0010000003023367483    2336748             GAGLIARDO EDITH MARIA IDA                                                                           F    C    4    AVELLANEDA                                                  01951 00                                                                                                       2000    ROSARIO                       S    0114315817                    156179647                                                                                                                                                                                                                                                                              000                                                         1    1    00250000                                                       0019001650201714                                               00000STAND               00000               0010002276120060531000000000000000000015P    D    0000020201215202012150050000000000000202101042021010400001192669000000000031500000000000                                                                                                                                                                                                                                          156179647                                                                                                                                                                                                                                                                                                                                                                                                 00080065092900000000000000000000000060316700137641390000000000000000 ASIA 00124960
12021011220210201     0010000003023367483    2336748             GAGLIARDO EDITH MARIA IDA                                                                           F    C    4    AVELLANEDA                                                  1955                                                                                                           2000    ROSARIO                       S    0114315817                    156179647                                                                                                                                                                                                                                                                              000                                                         1    1    00250000                                                       0019001650201714                                               00000STAND               00000               0010002276120060531000000000000000000015P    D    0000020201215202012150050000000000000202101042021010400001192669000000000031500000000000                                                                                                                                                                                                                                          156179647                                                                                                                                                                                                                                                                                                                                                                                                 00080065092900000000000000000000000060316700137641390000000000000000 ASIA 00124960
12021011220210201     0010000003023367483    2336748             GAGLIARDO EDITH MARIA IDA                                                                           F    C    4    SERVANDO BAYO                                               01209 PB                                                                                                       2000    ROSARIO                       S    0114315817                    156179647                                                                                                                                                                                                                                                                              000                                                         1    1    00250000                                                       0019001650201714                                               00000STAND               00000               0010002276120060531000000000000000000015P    D    0000020201215202012150050000000000000202101042021010400001192669000000000031500000000000                                                                                                                                                                                                                                          156179647                                                                                                                                                                                                                                                                                                                                                                                                 00080065092900000000000000000000000060316700137641390000000000000000 ASIA 00124960
12021011220210201     0010000003023860573    2386057             GALVAN ELSA                                                                                         F    V    4    MARTIN ZAPATA                                               176   PB        B                                                                                              1426    CIUDAD AUTONOMA               C    01147715832                                                                                                                                                                                                                                                                                                          000                                                         1    1    00049500                                                       0019000451007466                                               00000STAND               00000               0010002703020070303000000000000000000015P    D    0000020201119202011190162810000000000202101042021010400000618495000000000013700000000000                                                                                                                                                                                                                                                                                                                                                                                                                                                                                                                                                                                                                                                    00080000000000000000000000000000000060316700496816200000000000000000 ASIA 00000000
12021011220210201     0010000003027626883    2762688             OSUNA NICOLASA                                                                                      F    V    4    GDOR EMILIO CASTRO                                          1078            -                                                                                              1824    LANUS                         B    0001142258478                                                                                  GDOR EMILIO CASTRO                                          1078                                                                             LANUS                         B1824MNDLANUS                         B    000                                                         1    0    00000000                                                       0019000752407138                                               00000STAND               00000               0010001115520091108000000000000000000015P    D    0000020201211202012100030804400000000202101042021010400000308849000000000030880000000000                                                                                                                                                                                                                                          01142419205                                                                                                                                                                                                                                                                                                                                                                                               00080000000000000000000000000000000060316700162935160000000000000000 ASIA 01866600
12021011220210201     0010000003030746543    3074654             CISERA ELDA ESTER                                                                                   F    V    4    JORGE NEWBERY                                               1650  3         13                                                                                             1426    CIUDAD AUTONOMA               C    01147715259                                                                                                                                                                                                                                                                                                          000                                                         1    1    00200000                                                       0019000450815758                                               00000STAND               00000               0010000000020061129000000000000000000015P    D    0000020201214202012140082500000000000202101042021010400000268891000000000024580000000000                                                                                                                                                                                                                                                                                                                                                                                                                                                                                                                                                                                                                                                    00080000000000000000000000000000000060316700425512180000000000000000 ASIA 00125356
12021011220210201     0010000003031872473    3187247             FUKUNAGA NORMA ELIZABETH                                                                            F    C    4    PARANA                                                      727   7         0                                                                                              1017    CAPITAL FEDERAL               C    0001143749656                                                                                  PARANA                                                      727   7         0                                                                CIUDAD AUTONOMA BUENOS AIRES  C1017AAOCAPITAL FEDERAL               C    000                                                         1    0    00000000                                                       0019000582656001                                               00000STAND               00000               0010003647920100420000000000000000000015P    D    0000020201209202012070089000000000000202101042021010400000721150000000000016690000000000                                                                                                                                                                                                                                                                                                                                                                                                                                                                                                                                                                                                                                                    00080000000000000000000000000000000060316700145315450000000000000000 ASIA 00000000
12021011220210201     0010000003032211863    3221186             BAIGORRIA ROSA FRANCISCA                                                                            F    S    4    MISIONES                                                    369   8         d                                                                                              1083    CAPITAL FEDERAL               C    0001149310901                                                                                  MISIONES                                                    369   8         d                                                                CIUDAD AUTONOMA BUENOS AIRES  C1083ABGCAPITAL FEDERAL               C    000                                                         1    0    00000000                                                       0019000613123607                                               00000STAND               00000               0010001533120110816000000000000000000015P    D    0000020200601202005310000220000000000202101042021010400000161526000000000004500000000000                                                                                                                                                                                                                                                                                                                                                                                                                                                                                                                                                                                                                                                    00080000000000000000000000000000000060316700187298060000000000000000 ASIA 00000000
12021011220210201     0010000003032390683    3239068             CASTELLANI ESTHER OLGA                                                                              F    C    4    DR CARLOS TEJEDOR                                           1773            -                                                                                              1604    FLORIDA OESTE                 B    0001147611683                                                                                  DR CARLOS TEJEDOR                                           1773  -                                                                          FLORIDA OESTE                 B1604CLIVICENTE LOPEZ                 B    000                                                         1    0    00000000                                                       0019001882859813                                               00000STAND               00000               0010000000020101201000000000000000000015P    D    0000020200610202006100028000000000000202101042021010400000033576000000000002190000000000                                                                                                                                                                                                                                                                                                                                                                                                                                                                                                                                                                                                                                                    00080001451200000000000000000000000060316700719347640000000000000000 ASIA 00000000
12021011220210201     0010000003032888203    3288820             RADESCHI  VICENTA                                                                                   F    C    4    DE LOS PARAISOS                                             6090  0         0                                                                                              1684    PALOMAR                       B    0001147514342                                                                                  DE LOS PARAISOS                                             6090  0         0                                                                CIUDAD JARDIN DEL PALOMAR     B1684CNDTRES DE FEBRERO               B    000                                                         1    0    00000000                                                       0019001293114019                                               00000STAND               00000               0010000000020110806000000000000000000015P    D    0000020201204202012030033954400000000202101042021010400000287603000000000028760000000000                                                                                                                                                                                                                                                                                                                                                                                                                                                                                                                                                                                                                                                    00080000000000000000000000000000000060316700199585940000000000000000 ASIA 00000000
12021011220210201     0010000003035663273    3566327             RICCI CLARA                                                                                         F    S    4    JOSE EUSEBIO COLOMBRES                                      867   1         8                                                                                              1218    CAPITAL FEDERAL               C    0001149315343                                                                                  JOSE EUSEBIO COLOMBRES                                      867   1         8                                                                CIUDAD AUTONOMA BUENOS AIRES  C1218ABICAPITAL FEDERAL               C    000                                                         1    0    00000000                                                       0019000432826884                                               00000STAND               00000               0010000000020101101000000000000000000015P    D    0000020201120202011200012000000000000202101042021010400000212407000000000011930000000000                                                                                                                                                                                                                                                                                                                                                                                                                                                                                                                                                                                                                                                    00080000000000000000000000000000000060316700237985720000000000000000 ASIA 00870738
12021011220210201     0010000003036349863    3634986             LACOUR ANA MARIA                                                                                    F    C    4    TORTUGAS COUNTRY CLUB                                       L 260 0         0                                                                                              1667    tortuguitas                   B    0232000492600                                                                                  TORTUGAS GOLF CLUB                                          0     0         0                                                                MANUEL ALBERTI                B1664COAPILAR                         B    000                                                         1    0    00000000                                                       0019001002634766                                               00000PREEM               27812               0010000000020100326000000000000000000015P    D    0000020201130202011300020000000000000202101042021010400001002530000000000023230000000000                                                                                                                                                                                                                                                                                                                                                                                                                                                                                                                                                                                                                                                    00080033481200000000000000000000000060316710940856340000000000000000 ASIA 00000000
12021011220210201     0010000003037741753    3774175             URTIZBEREA CARLOTA DELIA                                                                            F    S    4    TERRERO                                                     2650  6         19                                                                                             1416    CAPITAL FEDERAL               C    0001145835384                                                                                  TERRERO                                                     2650  6         19                                                               CIUDAD AUTONOMA BUENOS AIRES  C1416BNFCAPITAL FEDERAL               C    000                                                         1    0    00000000                                                       0019001533006265                                               00000STAND               00000               0010000000020110506000000000000000000015P    D    0000020201006202010050009226200000000202101042021010400000096545000000000009560000000000                                                                                                                                                                                                                                                                                                                                                                                                                                                                                                                                                                                                                                                    00080000117200000000000000000000000060316700171729250000000000000000 ASIA 00608920
12021011220210201     0010000003037854983    3785498             NICHEA MARIA ESTHER                                                                                 F    C    4    SAN NICOLAS                                                 771   0         PR                                                                                             1407    CAPITAL FEDERAL               C    0001146727334                                                    CONSORCIO DE EDIFICIO         SAN NICOLAS                                                 771   0         PR                                                               CIUDAD AUTONOMA BUENOS AIRES  C1407DCMCAPITAL FEDERAL               C    01146727334                                                 4    11   00000000                                                       0019001672608038                                               00000STAND               00000               0010001492220100303000000000000000000015P    D    0000020201008202010080011260000000000202101042021010400000278547000000000006840000000000                                                                                                                                                                                                                                                                                                                                                                                                                                                                                                                                                                                                                                                    00080000149100000000000000000000000060316700282316110000000000000000 ASIA 00000000
12021011220210201     0010000003039100593    3910059             BATTESTIN ELISA ZULIMA                                                                              F    V    4    MANUEL BELGRANO TORRE 20                                    2947  05        B                                                                                              1824    LANUS                         B    01142204337                                                                                    AV DR MANUEL BELGRANO                                       2947  05        B                                                                SARANDI                       B1872FVIAVELLANEDA                    B    000                                                         1    0    00000000                                                       0019000643829689                                               00000STAND               00000               0010000000020130823000000000000000000015P    D    0000020201209202012090043640000000000202101042021010400000444681000000000011230000000000                                                                                                                                                                                                                                                                                                                                                                                                                                                                                                                                                                                                                                                    00080000000000000000000000000000000060316700238667000000000000000000 ASIA 00000000
